:020000040800F2
:100000000028002025200008ED160008F31600083F
:10001000F9160008FF160008051700080000000088
:100020000000000000000000000000000B170008A6
:100030001717000800000000231700082F170008FA
:100040006D2000086D2000086D2000086D2000085C
:100050006D2000086D2000086D2000086D2000084C
:100060006D2000086D2000086D2000086D2000083C
:100070006D2000086D2000086D2000086D2000082C
:100080006D2000086D2000086D2000086D2000081C
:100090006D2000086D2000086D2000086D2000080C
:1000A0006D2000086D2000086D2000086D200008FC
:1000B0003D1700086D200008000000006D200008BA
:1000C0006D20000800000000000000006D20000806
:1000D000000000006D2000086D20000800000000F6
:1000E0006D2000086D2000086D2000080000000051
:1000F0000000000000000000000000000000000000
:0C01000000000000000000005FF808F1A3
:10010C0010B5054C237833B9044B13B10448AFF345
:10011C0000800123237010BDC400002000000000EB
:10012C005038000808B5034B1BB103490348AFF323
:10013C00008008BD00000000C800002050380008F6
:10014C0080B400AF064B1B68012B04D1044B00227A
:10015C001A60012300E000231846BD4680BC70479E
:10016C00E000002080B400AF034B01221A6000BFF6
:10017C00BD4680BC704700BFE000002080B500AFDA
:10018C00214B1B68214A1360214B1B681E4A1360CC
:10019C004FF400511F4802F04FFA03461A461C4B0D
:1001AC001A601A4B1A68184B1B689A4229D1164BC5
:1001BC001A68174B1B689A4223D1174B1A68144BB9
:1001CC001B689A420DD0124B1B68134A1360104BDC
:1001DC001B68002B15D1FFF7C5FF104BC8221A6006
:1001EC000FE00E4B1B68013B0C4A13600B4B1B685A
:1001FC00002B06D1064B1B68002B02D1064B0122AB
:10020C001A6000BF80BD00BF040000200000002069
:10021C0008000020001001400C00002030000020DD
:10022C0080B400AF064B1B68012B04D1044B002299
:10023C001A60012300E000231846BD4680BC7047BD
:10024C00E400002080B400AF034B01221A6000BF11
:10025C00BD4680BC704700BFE400002080B500AFF5
:10026C00214B1B68214A1360214B1B681E4A1360EB
:10027C004FF480411F4802F0DFF903461A461C4B2D
:10028C001A601A4B1A68184B1B689A4229D1164BE4
:10029C001A68174B1B689A4223D1174B1A68144BD8
:1002AC001B689A420DD0124B1B68134A1360104BFB
:1002BC001B68002B15D1FFF7C5FF104BC8221A6025
:1002CC000FE00E4B1B68013B0C4A13600B4B1B6879
:1002DC00002B06D1064B1B68002B02D1064B0122CA
:1002EC001A6000BF80BD00BF140000201000002069
:1002FC0018000020001001401C00002034000020D9
:10030C0080B400AF064B1B68012B04D1044B0022B8
:10031C001A60012300E000231846BD4680BC7047DC
:10032C00E800002080B400AF034B01221A6000BF2C
:10033C00BD4680BC704700BFE800002080B500AF10
:10034C00214B1B68214A1360214B1B681E4A13600A
:10035C004FF400411F4802F06FF903461A461C4B3C
:10036C001A601A4B1A68184B1B689A4229D1164B03
:10037C001A68174B1B689A4223D1174B1A68144BF7
:10038C001B689A420DD0124B1B68134A1360104B1A
:10039C001B68002B15D1FFF7C5FF104BC8221A6044
:1003AC000FE00E4B1B68013B0C4A13600B4B1B6898
:1003BC00002B06D1064B1B68002B02D1064B0122E9
:1003CC001A6000BF80BD00BF240000202000002068
:1003DC0028000020001001402C00002038000020D4
:1003EC0080B584B004AFBA4B1B68013B032B00F201
:1003FC00C48101A252F823F0150400085704000828
:10040C00C90500087B060008012302930123019310
:10041C0001230093082304220221AE4801F0CEF9F7
:10042C0001230293012301930123009340232022F3
:10043C001021A84801F0C2F9A54B02221A60A64B64
:10044C001B68184601F03EF89EE100F0EBFD01231D
:10045C000293012301930023009308230422022119
:10046C009C4801F0ABF99C4B1A689C4B1B68D31A47
:10047C00184601F075F80346002B3DD0984B1B68CD
:10048C00002B0ED1974B1B686433974A82FB0312E7
:10049C009211DB17D31A1A460121422000F05AFDA3
:1004AC001DE08F4B1B68012B19D18E4B1B6803F180
:1004BC0064028D4B83FB02139911D317CB1A4FF4A3
:1004CC007A7101FB03F3D31A884A82FB031252118F
:1004DC00DB17D31A1A460221422000F03BFD012300
:1004EC000293002301930123009340232022102127
:1004FC00784801F063F953E0794B1B68002B1DD150
:10050C00784B1B686433794A82FB03125211DB1758
:10051C00D21A774B1B68744981FB03018911DB17D5
:10052C005B1A1344734A82FB03129210DB17D31A23
:10053C001A460121422000F00DFD25E0684B1B6896
:10054C00012B21D1674B1B686433684A82FB031271
:10055C005211DB17D21A664B1B68634981FB0301EE
:10056C008911DB175B1A1A44624B83FB0213991037
:10057C00D317C91A0B469B000B445B00D11A0A46D1
:10058C000221422000F0E6FC002302930123019398
:10059C00012300934023202210214E4801F00EF934
:1005AC00554B1B68012B40F0EA80494B04221A6022
:1005BC004A4B1B68184600F085FFE0E000F032FD66
:1005CC0001230293002301930123009308230422A7
:1005DC000221404801F0F2F8414B1B68002B0ED170
:1005EC00404B1B686433404A82FB03129211DB17A9
:1005FC00D31A1A460121422000F0ACFC1DE0384B06
:10060C001B68012B19D1374B1B6803F16402364B65
:10061C0083FB02139911D317CB1A4FF47A7101FB98
:10062C0003F3D31A314A82FB03125211DB17D31A8C
:10063C001A460221422000F08DFC01230293012373
:10064C00019300230093402320221021214801F024
:10065C00B5F8294B1B68012B40F093801C4B0222F0
:10066C001A601D4B1B68184600F02CFF89E000F047
:10067C00D9FC002302930123019301230093082347
:10068C0004220221134801F099F8154B1B68002B2A
:10069C0034D1144B1B686433144A82FB031252117D
:1006AC00DB17D21A124B1B680F4981FB030189110E
:1006BC00DB17CB1A13440F4A82FB03129210DB1781
:1006CC00D31A1A460121422000F044FC3CE000BF42
:1006DC003C00002000080140440000204C00002099
:1006EC001801002000010020D34D62101F85EB5132
:1006FC00480000206766666604010020244B1B68D6
:10070C00012B21D1234B1B686433234A82FB031238
:10071C005211DB17D21A214B1B68214981FB0301B3
:10072C008911DB17CB1A1A441E4B83FB0213991049
:10073C00D317C91A0B469B000B445B00D11A0A460F
:10074C000221422000F006FC0123029301230193B5
:10075C0000230093402320221021134801F02EF88F
:10076C00124B1B68012B0ED1114B03221A600B4B41
:10077C001B68184600F0A6FE05E000BF04E000BFB1
:10078C0002E000BF00E000BF00BFBD4680BD00BF5F
:10079C0018010020000100201F85EB5148000020AB
:1007AC00D34D6210676666660008014004010020A4
:1007BC003C00002080B584B004AFBA4B1B68052BFD
:1007CC0000F28B8301A252F823F000BF0908000845
:1007DC00F1070008110900087D0A00081F0C000829
:1007EC00E10D0008FFF7FCFDFFF7AAFC0346002B08
:1007FC0000F07583AB4B00221A6070E30123029367
:10080C000123019301230093082304220221A6480B
:10081C0000F0D4FF012302930123019301230093E1
:10082C00402320221021A04800F0C8FF002302938F
:10083C0000230193002300934FF480734FF48072D4
:10084C008021994800F0BAFF002302930023019302
:10085C00002300934FF480634FF480624FF40071D7
:10086C00914800F0ABFF0123029301230193012374
:10087C0000934FF400734FF4807280218B4800F08A
:10088C009DFF0123029301230193012300934FF455
:10089C0080534FF400624FF48061844800F08EFF67
:1008AC0001230293012301930123009302230122CC
:1008BC004FF400517D4800F081FF01230293012386
:1008CC00019301230093102308220421774800F0A0
:1008DC0075FF01230293012301930123009340230D
:1008EC0040222021714800F069FF6E4B02221A60F1
:1008FC00FA2000F01BFE932000F0FEFD992000F082
:10090C00E1FDF5E26A4B1B68012B14D1694B1B68A6
:10091C00002B10D1992000F0D5FD674B1B68674A5E
:10092C0082FB03121213DB17D31A1A460121412042
:10093C0000F010FB22E05E4B1B68012B1ED15D4BBF
:10094C001B68012B1AD1992000F0BCFD5A4B1A6878
:10095C005A4B83FB02131913D317CB1A42F21071A3
:10096C0001FB03F3D31A564A82FB03129211DB17D5
:10097C00D31A1A460221412000F0ECFA514B1B68A5
:10098C00012B0CD14B4B1B68002B08D1932000F092
:10099C00B3FD00220121422000F0DCFA0FE0494BAC
:1009AC001B68012B0BD1434B1B68012B07D19320E8
:1009BC0000F0A2FD02220221422000F0CBFA01231A
:1009CC00029301230193012300932023202204216D
:1009DC00354800F0F3FE0123029301230193012318
:1009EC0000934023402208212F4800F0E7FE364BAD
:1009FC001B68012B08D1FA2000F098FD102310225F
:100A0C000221294800F0FEFEFFF77AFC0346002B7A
:100A1C0003D0294B1B68284A1360FFF701FC0346DF
:100A2C00002B12D0244B1B68284A1360224B1B68E6
:100A3C0003F57A73204A13601F4B1B68244A9342B8
:100A4C0003DD1D4B4FF47A721A60FFF779FB0346F6
:100A5C00002B00F04682134B03221A60FA2000F0A0
:100A6C0065FD932000F048FD992000F02BFD38E245
:100A7C000F4B1B68012B2FD10E4B1B68002B2BD15E
:100A8C00992000F01FFD134B1B680C4A82FB0312CC
:100A9C001213DB17D31A1A460121412000F05AFA1F
:100AAC003DE000BF4000002000080140000C014068
:100ABC00040100201801002044000020AD8BDB68ED
:100ACC00D34D62100C01002014010020EC0000201A
:100ADC00B882010048000020B14B1B68012B1ED1CD
:100AEC00B04B1B68012B1AD1992000F0EBFCAE4BDC
:100AFC001A68AE4B83FB02131913D317CB1A42F2AD
:100B0C00107101FB03F3D31AA94A82FB0312921151
:100B1C00DB17D31A1A460221412000F01BFAA54B11
:100B2C001B68012B0CD19F4B1B68002B08D1932009
:100B3C0000F0E2FC00220121422000F00BFA0FE051
:100B4C009C4B1B68012B0BD1964B1B68012B07D1BF
:100B5C00932000F0D1FC03220221422000F0FAF98C
:100B6C0001230293012301930123009310231022EC
:100B7C000221914800F022FE0123029301230193EC
:100B8C00012300934023402208218B4800F016FEDD
:100B9C008A4B1B68012B08D1FA2000F0C7FC2023DC
:100BAC0020220421844800F02DFEFFF7A9FB034608
:100BBC00002B03D07C4B1B687B4A1360FFF730FB88
:100BCC000346002B12D0784B1B687D4A1360764B82
:100BDC001B6803F57A73744A1360734B1B68794A6C
:100BEC00934203DD704B4FF47A721A60FFF7A8FA48
:100BFC000346002B00F07781734B04221A60FA2015
:100C0C0000F094FC932000F077FC992000F05AFC43
:100C1C0069E1634B1B68012B14D1624B1B68002BE1
:100C2C0010D1992000F04EFC684B1B685F4A82FB88
:100C3C0003121213DB17D31A1A460121412000F0BC
:100C4C0089F922E0564B1B68012B1ED1554B1B68B2
:100C5C00012B1AD1992000F035FC5C4B1A68534BD0
:100C6C0083FB02131913D317CB1A42F2107101FB39
:100C7C0003F3D31A4E4A82FB03129211DB17D31AD9
:100C8C001A460221412000F065F94A4B1B68012BE2
:100C9C000CD1444B1B68002B08D1932000F02CFC8A
:100CAC0000220121422000F055F90FE0414B1B6856
:100CBC00012B0BD13B4B1B68012B07D1932000F070
:100CCC001BFC04220221422000F044F90123029370
:100CDC000123019301230093102310220221364893
:100CEC0000F06CFD01230293012301930123009377
:100CFC00202320220421304800F060FD2F4B1B687C
:100D0C00012B08D1FA2000F011FC402340220821CD
:100D1C00294800F077FDFFF7F3FA0346002B0DD0BE
:100D2C0000F000F90346002B08D0992000F0CAFB14
:100D3C00932000F0E1FB244B05221A60FFF770FAB8
:100D4C000346002B12D0214B1B68214A13601F4B0A
:100D5C001B6803F57A731D4A13601C4B1B68194AF8
:100D6C00934203DD194B4FF47A721A60FFF7E8F9DE
:100D7C000346002B00F0B98000F0D4F80346002B9A
:100D8C0009D0992000F09EFB932000F0B5FB0E4B90
:100D9C0005221A60A9E00C4B01221A60A5E000BFE5
:100DAC00040100201801002048000020AD8BDB68F6
:100DBC00D34D62100C0100200008014014010020EA
:100DCC00F0000020B8820100400000204C00002000
:100DDC00F4000020012302930123019301230093CB
:100DEC00202320220421444800F0E8FC0123029334
:100DFC0001230193012300931023102202213E486A
:100E0C0000F0DCFC012302930123019301230093E6
:100E1C00402340220821384800F0D0FC374B1B6897
:100E2C00012B0CD1364B1B68002B08D1992000F0FC
:100E3C0049FB0B220121412000F08CF80FE02F4BD5
:100E4C001B68012B0BD12E4B1B68012B07D1992052
:100E5C0000F038FB0C220221412000F07BF8294BDA
:100E6C001B68012B0CD1264B1B68002B08D193203F
:100E7C0000F042FB00220121422000F06BF80FE051
:100E8C00204B1B68012B0BD11D4B1B68012B07D171
:100E9C00932000F031FB05220221422000F05AF889
:100EAC00194B1B68194A1360194B1B68194A1360BC
:100EBC00194B1B68194A1360FFF742F90346002BC4
:100ECC0002D0174B02221A60FFF71AFA0346002BC6
:100EDC000DD0134B01221A6009E000BF08E000BFDF
:100EEC0006E000BF04E000BF02E000BF00E000BF6E
:100EFC0000BFBD4680BD00BF0008014004010020BA
:100F0C00180100200C010020EC00002044000020FF
:100F1C00F000002048000020F40000204C000020CD
:100F2C004000002080B400AF074B1A68074B1B68C9
:100F3C001A44074B1B689A4201D0012300E000239E
:100F4C001846BD4680BC7047480000204C0000206D
:100F5C004400002080B584B000AF0346B9607A60CD
:100F6C00FB73FB7B412B12D1BB68012B0FD10022F1
:100F7C0080212B4801F077FB01224FF48071284827
:100F8C0001F071FB7968412000F05CFC43E0FB7BD5
:100F9C00412B12D1BB68022B0FD100224FF4807170
:100FAC001F4801F060FB012280211D4801F05BFB12
:100FBC007968412000F046FC2DE0FB7B422B13D1DD
:100FCC00BB68012B10D100224FF40071144801F0C2
:100FDC004AFB01224FF48061114801F044FB79680F
:100FEC00422000F02FFC16E0FB7B422B13D1BB6898
:100FFC00022B10D100224FF48061094801F033FB21
:10100C0001224FF40071064801F02DFB7968422053
:10101C0000F018FCFFE700BF1037BD4680BD00BFD5
:10102C000008014080B500AF204B1B68012B16D186
:10103C001F4B1B68002B12D1962000F05DFA1D4B44
:10104C001B6864331C4A82FB03129211DB17D31A00
:10105C001A4601214120FFF77DFF00BF24E0134B0E
:10106C001B68012B20D1124B1B68012B1CD1962025
:10107C0000F042FA0F4B1B6803F164020E4B83FB2A
:10108C0002139911D317CB1A4FF47A7101FB03F3A6
:10109C00D31A0A4A82FB03125211DB17D31A1A46CF
:1010AC0002214120FFF756FF00BF80BD0C0100203C
:1010BC001801002000010020D34D62101F85EB5158
:1010CC0080B500AF00F0CEFF00F016F800F09CF8F1
:1010DC0000F04EF8064801F023FF00F01FF919222A
:1010EC000021044800F02AF900F08AF9FCE700BF5F
:1010FC0028010020C107000880B590B000AF07F1AF
:10110C00180328220021184602F0D0FA3B1D0022B9
:10111C001A605A609A60DA601A610223BB6101237B
:10112C00BB621023FB6200237B6307F11803184694
:10113C0001F0CAFA0346002B01D000F0E9F80F23A6
:10114C007B600023BB600023FB6000233B6100231A
:10115C007B613B1D0021184601F036FD0346002B38
:10116C0001D000F0D5F800BF4037BD4680BD00006F
:10117C0080B586B000AF07F1080300221A605A60F0
:10118C009A60DA603B4600221A605A601D4B4FF0A1
:10119C0080421A601B4B41F63F725A60194B002279
:1011AC009A60184B0922DA60164B00221A61154B13
:1011BC0000229A61134801F063FE0346002B01D014
:1011CC0000F0A6F84FF48053BB6007F108031946F2
:1011DC000C4801F0E1FF0346002B01D000F098F819
:1011EC0000233B6000237B603B461946054802F018
:1011FC00B9F90346002B01D000F08AF800BF18376C
:10120C00BD4680BD2801002080B588B000AF07F135
:10121C00100300221A605A609A60DA602F4B9B69A7
:10122C002E4A43F0100393612C4B9B6903F010037F
:10123C00FB60FB68294B9B69284A43F004039361CC
:10124C00264B9B6903F00403BB60BB68234B9B6973
:10125C00224A43F008039361204B9B6903F0080377
:10126C007B607B6800224FF6FE711D4801F0FBF994
:10127C00002243F6FF711B4801F0F5F94FF460436F
:10128C003B6100237B610123BB6107F1100319460D
:10129C00154801F057F84FF6FE733B6101237B6153
:1012AC000023BB610223FB6107F1100319460C48B4
:1012BC0001F048F843F6FF733B6101237B61002387
:1012CC00BB610223FB6107F110031946054801F0CD
:1012DC0039F800BF2037BD4680BD00BF001002406A
:1012EC0000080140000C01400010014080B582B0A4
:1012FC0000AF786000F05AF800F050F9FEF73EFFAE
:10130C00FEF7ACFFFFF71AF800BF0837BD4680BDEB
:10131C0080B400AF72B600BFFEE7000080B400AF2F
:10132C00044B00221A60044B00221A6000BFBD4619
:10133C0080BC7047F8000020FC00002080B586B00F
:10134C0000AFF860B9607A601C2002F09FF9034688
:10135C007B617B69002B21D07B69FA681A607B6901
:10136C00BA685A607B697A689A607B6900221A7342
:10137C007B6900225A610B4B1A687B699A61094B95
:10138C001B68002B04D0074B1B687A695A6102E07A
:10139C00054A7B691360034A7B69136000BF1837E9
:1013AC00BD4680BDFC000020F800002080B483B056
:1013BC0000AF124B1B687B6016E07B685B68002BF0
:1013CC0005D07B685B685A1E7B685A6009E07B68B5
:1013DC009A687B685A607B681B7B0133DAB27B6846
:1013EC001A737B685B697B607B68002BE5D100BF5F
:1013FC0000BF0C37BD4680BC704700BFF800002012
:10140C0080B582B000AF164B1B687B6020E07B6818
:10141C001B7B002B19D07B681B7B013BDAB27B68F2
:10142C001A737B681B6898477B689B68002B08D1F4
:10143C007B683B607B685B697B60386800F012F806
:10144C0006E07B685B697B6002E07B685B697B60C4
:10145C007B68002BDBD100BF00BF0837BD4680BDC9
:10146C00F800002080B582B000AF78607B68002B5C
:10147C001FD07B689B69002B05D07B689B697A68C1
:10148C0052695A6103E07B685B690C4A13607B68A4
:10149C005B69002B05D07B685B697A6892699A61FD
:1014AC0003E07B689B69064A1360786802F0F6F8E3
:1014BC0000E000BF0837BD4680BD00BFF80000202B
:1014CC00FC00002080B483B000AF7860074B1B6831
:1014DC007A6892FBF3F3064A1360064B00221A60FB
:1014EC0000BF0C37BD4680BC704700BF50000020C9
:1014FC00000100200401002080B483B000AF7860AC
:10150C00074B1B687A6892FBF3F3064A1360064B91
:10151C0000221A6000BF0C37BD4680BC704700BF6C
:10152C0050000020080100200C01002080B483B082
:10153C0000AF7860074B1B687A6892FBF3F3064A9E
:10154C001360064B00221A6000BF0C37BD4680BCEE
:10155C00704700BF50000020100100201401002033
:10156C0080B483B000AF78607B680A4A82FB0312B8
:10157C009210DB17D31A7B60074B1B687A689A4270
:10158C0001DB012300E0002318460C37BD4680BC6C
:10159C00704700BF676666660001002080B400AF2C
:1015AC001D4B1B68002B05DD1B4B1B68013B1A4AAE
:1015BC00136002E0194B01221A60194B1B68002BB7
:1015CC0005DD174B1B68013B154A136013E0154BE7
:1015DC0001221A60144B1B68002B02D0012B06D081
:1015EC0009E0114B1B6801330F4A136003E00E4BEB
:1015FC0000221A6000BF0D4B1B68002B05DD0B4B46
:10160C001B68013B094A136002E0094B01221A6076
:10161C0000BFBD4680BC70470001002004010020C3
:10162C00080100200C0100201801002010010020EE
:10163C001401002080B485B000AF154B9B69144A8F
:10164C0043F001039361124B9B6903F00103BB60F0
:10165C00BB680F4BDB690E4A43F08053D3610C4BD4
:10166C00DB6903F080537B607B680A4B5B68FB6033
:10167C00FB6823F0E063FB60FB6843F08063FB6076
:10168C00044AFB68536000BF1437BD4680BC7047EA
:10169C00001002400000014080B584B000AF7860BB
:1016AC007B681B68B3F1804F13D10C4BDB690B4A81
:1016BC0043F00103D361094BDB6903F00103FB60C9
:1016CC00FB68002200211C2000F005FE1C2000F00D
:1016DC001EFE00BF1037BD4680BD00BF001002408B
:1016EC0080B400AFFEE780B400AFFEE780B400AF7B
:1016FC00FEE780B400AFFEE780B400AFFEE780B435
:10170C0000AF00BFBD4680BC704780B400AF00BFC7
:10171C00BD4680BC704780B400AF00BFBD4680BCE6
:10172C00704780B500AF00F0E3FC00BF80BD000047
:10173C0080B500AF024801F03FFC00BF80BD00BF88
:10174C002801002080B586B000AF7860144A154B94
:10175C00D31A7B617B693B61134B1B68002B02D155
:10176C00114B124A1A60104B1A687B6813443A6981
:10177C009A4207D201F060FF03460C221A604FF028
:10178C00FF3309E0084B1B68FB60074B1A687B684A
:10179C001344054A1360FB6818461837BD4680BDD4
:1017AC0000280020000400001C01002088010020FB
:1017BC0080B400AF00BFBD4680BC704780B584B01C
:1017CC0000AFF860084611461A4603467B810B466B
:1017DC003B811346FB803A7E7B891946F86800F002
:1017EC0042FF3A7F3B891946F86800F03CFF97F8B6
:1017FC002020FB881946F86800F035FF00BF103731
:10180C00BD4680BD80B584B000AFF8600846114677
:10181C001A4603467B810B463B811346FB807B8932
:10182C001946F86800F037FF3B891946F86800F054
:10183C0032FFFB881946F86800F02DFF00BF103707
:10184C00BD4680BD80B586B004AF03463960FB71E0
:10185C00FB79412B40F041823B680C2B00F2D0838A
:10186C0001A252F823F000BFA918000803190008C0
:10187C005D190008B7190008111A00086B1A000846
:10188C00C51A00081F1B0008791B0008D91B00088B
:10189C000D200008331C00088D1C00080023029347
:1018AC0000230193002300934FF400734FF48072D4
:1018BC008021C548FFF782FF002302930023019388
:1018CC00002300934FF480534FF400624FF4806177
:1018DC00BD48FFF773FF01230293002301930023FC
:1018EC0000934FF400534FF480524FF40061B6480C
:1018FC00FFF764FF89E30023029300230193012384
:10190C0000934FF400734FF480728021AE48FFF7C0
:10191C0055FF0123029301230193012300934FF4FC
:10192C0080534FF400624FF48061A748FFF746FFE5
:10193C000123029301230193012300934FF40053DD
:10194C004FF480524FF400619F48FFF737FF5CE380
:10195C000123029300230193002300934FF400739F
:10196C004FF4807280219848FFF728FF01230293DF
:10197C0000230193002300934FF480534FF4006233
:10198C004FF480619048FFF719FF00230293012365
:10199C000193002300934FF400534FF480524FF403
:1019AC0000618948FFF70AFF2FE30023029300230D
:1019BC000193002300934FF400734FF48072802145
:1019CC008148FFF7FBFE01230293012301930023BF
:1019DC0000934FF480534FF400624FF480617A48C7
:1019EC00FFF7ECFE002302930123019301230093E4
:1019FC004FF400534FF480524FF400617248FFF7DC
:101A0C00DDFE02E3002302930023019301230093E4
:101A1C004FF400734FF4807280216B48FFF7CEFEB9
:101A2C000023029301230193012300934FF480536D
:101A3C004FF400624FF480616348FFF7BFFE002350
:101A4C00029300230193012300934FF400534FF4AE
:101A5C0080524FF400615C48FFF7B0FED5E20023E2
:101A6C00029301230193002300934FF400734FF46E
:101A7C00807280215448FFF7A1FE002302930123BA
:101A8C000193002300934FF480534FF400624FF402
:101A9C0080614D48FFF792FE0023029300230193CF
:101AAC00012300934FF400534FF480524FF4006124
:101ABC004548FFF783FEA8E200230293012301931C
:101ACC00002300934FF400734FF4807280213E4842
:101ADC00FFF774FE0023029300230193002300936D
:101AEC004FF480534FF400624FF480613648FFF797
:101AFC0065FE0023029300230193002300934FF40F
:101B0C0000534FF480524FF400612F48FFF756FEFC
:101B1C007BE20023029300230193002300934FF4F4
:101B2C0000734FF4807280212748FFF747FE012392
:101B3C00029301230193012300934FF480534FF43C
:101B4C0000624FF480612048FFF738FE01230293B6
:101B5C0001230193012300934FF400534FF480525F
:101B6C004FF400611848FFF729FE4EE20023029360
:101B7C0000230193002300934FF400734FF4807201
:101B8C0080211148FFF71AFE0023029300230193D2
:101B9C00002300934FF480534FF400624FF48061A4
:101BAC000948FFF70BFE0023029300230193002347
:101BBC0000934FF400534FF480524FF400610248ED
:101BCC00FFF7FCFD21E200BF000C01400023029353
:101BDC0000230193002300934FF400734FF48072A1
:101BEC008021BC48FFF7EAFD0023029301230193F7
:101BFC00002300934FF480534FF400624FF4806144
:101C0C00B448FFF7DBFD002302930023019301236B
:101C1C0000934FF400534FF480524FF40061AD48E1
:101C2C00FFF7CCFDF1E10123029301230193002383
:101C3C0000934FF400734FF480728021A548FFF796
:101C4C00BDFD0023029300230193012300934FF465
:101C5C0080534FF400624FF480619E48FFF7AEFD55
:101C6C000023029300230193002300934FF40053AD
:101C7C004FF480524FF400619648FFF79FFDC4E18A
:101C8C000123029301230193002300934FF400736B
:101C9C004FF4807280218F48FFF790FD0023029350
:101CAC0000230193002300934FF480534FF4006200
:101CBC004FF480618748FFF781FD012302930023D5
:101CCC000193002300934FF400534FF480524FF4D0
:101CDC0000618048FFF772FD97E1FB79422B40F0E1
:101CEC0091813B68092B00F28F8101A252F823F0FD
:101CFC00251D00086F1D0008B91D0008031E0008F3
:101D0C004D1E0008971E0008E51E00082F1F000836
:101D1C00791F0008C31F00080023029300230193BE
:101D2C00002300930423022201216A48FFF746FD99
:101D3C0000230293002301930023009320231022FD
:101D4C0008216448FFF73AFD012302930023019315
:101D5C00002300934023202210215E48FFF72EFD24
:101D6C0053E10023029300230193012300930423E6
:101D7C00022201215748FFF721FD01230293012381
:101D8C000193012300932023102208215148FFF7CF
:101D9C0015FD01230293012301930123009340239A
:101DAC00202210214B48FFF709FD2EE1012302935D
:101DBC0000230193002300930423022201214548B0
:101DCC00FFF7FCFC012302930023019300230093F3
:101DDC002023102208213F48FFF7F0FC0023029338
:101DEC000123019300230093402320221021394822
:101DFC00FFF7E4FC09E10023029300230193002385
:101E0C0000930423022201213248FFF7D7FC01235F
:101E1C000293012301930023009320231022082115
:101E2C002C48FFF7CBFC00230293012301930123E1
:101E3C0000934023202210212648FFF7BFFCE4E04A
:101E4C000023029300230193012300930423022215
:101E5C0001212048FFF7B2FC0023029301230193D8
:101E6C00012300932023102208211A48FFF7A6FC17
:101E7C00002302930023019301230093402320228B
:101E8C0010211448FFF79AFCBFE0002302930123B2
:101E9C000193002300930423022201210D48FFF734
:101EAC008DFC002302930123019300230093202334
:101EBC00102208210748FFF781FC0023029300231E
:101ECC000193012300934023202210210148FFF7A6
:101EDC0075FC9AE0000C014000230293012301934E
:101EEC00002300930423022201214A48FFF766FCD9
:101EFC00002302930023019300230093202310223C
:101F0C0008214448FFF75AFC002302930023019355
:101F1C00002300934023202210213E48FFF74EFC63
:101F2C0073E0002302930023019300230093042306
:101F3C00022201213748FFF741FC012302930123C0
:101F4C000193012300932023102208213148FFF72D
:101F5C0035FC0123029301230193012300934023B9
:101F6C00202210212B48FFF729FC4EE0002302937E
:101F7C00002301930023009304230222012125480E
:101F8C00FFF71CFC00230293002301930023009312
:101F9C002023102208211F48FFF710FC0023029376
:101FAC000023019300230093402320221021194881
:101FBC00FFF704FC29E00023029300230193002384
:101FCC0000930423022201211248FFF7F7FB0023A0
:101FDC000293012301930023009320231022082154
:101FEC000C48FFF7EBFB0023029300230193012322
:101FFC0000934023202210210648FFF7DFFB04E06A
:10200C0000BF02E000BF00E000BF00BF0837BD46C4
:10201C0080BD00BF000C0140FFF7CAFB0B480C4908
:10202C000C4A002302E0D458C4500433C4188C4228
:10203C00F9D3094A094C002301E013600432A2428F
:10204C00FBD301F0FFFAFFF73BF8704700000020CC
:10205C00C400002094380008C40000208401002033
:10206C00FEE7000080B500AF084B1B68074A43F041
:10207C0010031360032000F023F90F2000F008F880
:10208C00FFF7D8FA0023184680BD00BF002002409D
:10209C0080B582B000AF7860124B1A68124B1B7877
:1020AC0019464FF47A73B3FBF1F3B2FBF3F3184612
:1020BC0000F03BF90346002B01D001230EE07B68B6
:1020CC000F2B0AD8002279684FF0FF3000F003F98B
:1020DC00064A7B681360002300E00123184608378A
:1020EC00BD4680BD540000205C000020580000203C
:1020FC0080B400AF054B1B781A46054B1B68134484
:10210C00034A136000BFBD4680BC70475C000020D2
:10211C007001002080B400AF024B1B681846BD460E
:10212C0080BC70477001002080B485B000AF78602F
:10213C007B6803F00703FB600C4BDB68BB60BA6881
:10214C004FF6FF031340BB60FB681A02BB681343D6
:10215C0043F0BF6343F40033BB60044ABB68D360F5
:10216C0000BF1437BD4680BC704700BF00ED00E0D7
:10217C0080B400AF044BDB681B0A03F0070318465E
:10218C00BD4680BC704700BF00ED00E080B483B05A
:10219C0000AF0346FB7197F90730002B0BDBFB7983
:1021AC0003F01F02064997F907305B09012000FA7A
:1021BC0002F241F8232000BF0C37BD4680BC7047AB
:1021CC0000E100E080B483B000AF03463960FB71DE
:1021DC0097F90730002B0ADB3B68DAB20C4997F908
:1021EC0007301201D2B20B4483F800230AE03B689B
:1021FC00DAB20849FB7903F00F03043B1201D2B2A7
:10220C000B441A7600BF0C37BD4680BC704700BF2C
:10221C0000E100E000ED00E080B489B000AFF860B0
:10222C00B9607A60FB6803F00703FB61FB69C3F1DB
:10223C000703042B28BF0423BB61FB690433062B63
:10224C0002D9FB69033B00E000237B614FF0FF32B6
:10225C00BB6902FA03F3DA43BB681A407B699A4004
:10226C004FF0FF317B6901FA03F3D9437B680B40D4
:10227C00134318462437BD4680BC704780B582B0E6
:10228C0000AF78607B68013BB3F1807F01D3012301
:10229C000FE00A4A7B68013B53600F214FF0FF307F
:1022AC00FFF790FF054B00229A60044B07221A603F
:1022BC00002318460837BD4680BD00BF10E000E083
:1022CC0080B582B000AF78607868FFF72DFF00BF53
:1022DC000837BD4680BD80B586B000AF0346B960F7
:1022EC007A60FB7300237B61FFF742FF78617A68A9
:1022FC00B9687869FFF790FF024697F90F301146DD
:10230C001846FFF75FFF00BF1837BD4680BD80B58C
:10231C0082B000AF0346FB7197F907301846FFF700
:10232C0035FF00BF0837BD4680BD80B582B000AF19
:10233C0078607868FFF7A2FF034618460837BD4659
:10234C0080BD000080B48BB000AF78603960002392
:10235C007B6200233B6248E101227B6A02FA03F3B1
:10236C00FB613B681B68FA691340BB61BA69FB6986
:10237C009A4240F037813B685B68A34A93425ED037
:10238C00A14A934275D8A14A934258D09F4A93428E
:10239C006FD89F4A934252D09D4A934269D89D4A26
:1023AC0093424CD09B4A934263D89B4A934246D06B
:1023BC00994A93425DD8122B2AD8122B59D801A2D4
:1023CC0052F823F04B240008252400083724000879
:1023DC00792400087F2400087F2400087F2400084B
:1023EC007F2400087F2400087F2400087F24000835
:1023FC007F2400087F2400087F2400087F24000825
:10240C007F2400087F2400082D24000841240008A4
:10241C00824A934213D02CE03B68DB683B6229E094
:10242C003B68DB6804333B6224E03B68DB680833C1
:10243C003B621FE03B68DB680C333B621AE03B6895
:10244C009B68002B02D104233B6213E03B689B6822
:10245C00012B05D108233B627B68FA691A6109E0FC
:10246C0008233B627B68FA695A6103E000233B62F4
:10247C0000E000BFBB69FF2B01D87B6801E07B68E3
:10248C0004337B61BB69FF2B02D87B6A9B0002E0A3
:10249C007B6A083B9B003B617B691A680F213B6997
:1024AC0001FA03F3DB431A40396A3B6901FA03F37F
:1024BC001A437B691A603B685B6803F08053002BFE
:1024CC0000F09080564B9B69554A43F00103936191
:1024DC00534B9B6903F00103BB60BB68514A7B6A99
:1024EC009B08023352F82330FB607B6A03F0030332
:1024FC009B000F2202FA03F3DB43FA681340FB60E4
:10250C007B68494A93420DD07B68484A934207D076
:10251C007B68474A934201D1022304E0032302E083
:10252C00012300E000237A6A02F003029200934038
:10253C00FA681343FB603B497B6A9B080233FA68D9
:10254C0041F823203B685B6803F48013002B06D012
:10255C00384B9A683749BB6913438B6006E0354B9F
:10256C009A68BB69DB43334913408B603B685B68FB
:10257C0003F40013002B06D02E4BDA682D49BB69EF
:10258C001343CB6006E02B4BDA68BB69DB4329496C
:10259C001340CB603B685B6803F40033002B06D020
:1025AC00244B5A682349BB6913434B6006E0214B0B
:1025BC005A68BB69DB431F4913404B603B685B683F
:1025CC0003F48033002B06D01A4B1A681949BB69E7
:1025DC0013430B6006E0174B1A68BB69DB431549C4
:1025EC0013400B607B6A01337B623B681A687B6A21
:1025FC0022FA03F3002B7FF4AFAE00BF00BF2C37E1
:10260C00BD4680BC704700BF000032100000311086
:10261C000000221000002110000012100000111008
:10262C00001002400000014000080140000C014075
:10263C00001001400004014080B485B000AF786008
:10264C000B467B807B689A687B881340002B02D0FA
:10265C000123FB7301E00023FB73FB7B184614374B
:10266C00BD4680BC704780B483B000AF78600B4629
:10267C007B8013467B707B78002B03D07A887B6839
:10268C001A6103E07B881A047B681A6100BF0C375F
:10269C00BD4680BC704780B485B000AF78600B46F7
:1026AC007B807B68DB68FB607A88FB6813401A04CC
:1026BC00FB68D9437B880B401A437B681A6100BFC7
:1026CC001437BD4680BC704780B586B000AF7860CB
:1026DC007B68002B01D101236CE27B681B6803F043
:1026EC000103002B00F08780924B5B6803F00C0316
:1026FC00042B0CD08F4B5B6803F00C03082B12D10E
:10270C008C4B5B6803F48033B3F5803F0BD1894B62
:10271C001B6803F40033002B6CD07B685B68002BC8
:10272C0068D1012346E27B685B68B3F5803F06D134
:10273C00804B1B687F4A43F4803313602EE07B6828
:10274C005B68002B0CD17B4B1B687A4A23F48033DB
:10275C001360784B1B68774A23F4802313601DE0C9
:10276C007B685B68B3F5A02F0CD1724B1B68714A68
:10277C0043F4802313606F4B1B686E4A43F4803321
:10278C0013600BE06B4B1B686A4A23F480331360B5
:10279C00684B1B68674A23F4802313607B685B6873
:1027AC00002B13D0FFF7B6FC386108E0FFF7B2FC42
:1027BC0002463B69D31A642B01D90323FAE15D4B22
:1027CC001B6803F40033002BF0D014E0FFF7A2FCDD
:1027DC00386108E0FFF79EFC02463B69D31A642B74
:1027EC0001D90323E6E1534B1B6803F40033002BA0
:1027FC00F0D100E000BF7B681B6803F00203002BE4
:10280C0063D04C4B5B6803F00C03002B0BD0494B93
:10281C005B6803F00C03082B1CD1464B5B6803F47C
:10282C008033002B16D1434B1B6803F00203002BA3
:10283C0005D07B681B69012B01D00123BAE13D4B0C
:10284C001B6823F0F8027B685B69DB003949134392
:10285C000B603AE07B681B69002B20D0364B0122C1
:10286C001A60FFF757FC386108E0FFF753FC02468B
:10287C003B69D31A022B01D903239BE12D4B1B6817
:10288C0003F00203002BF0D02A4B1B6823F0F80254
:10289C007B685B69DB00274913430B6015E0264B13
:1028AC0000221A60FFF736FC386108E0FFF732FCB3
:1028BC0002463B69D31A022B01D903237AE11D4B43
:1028CC001B6803F00203002BF0D17B681B6803F03C
:1028DC000803002B3AD07B689B69002B19D0174B4F
:1028EC0001221A60FFF716FC386108E0FFF712FCB2
:1028FC0002463B69D31A022B01D903235AE10D4B33
:10290C005B6A03F00203002BF0D0012000F09AFA6E
:10291C001CE00A4B00221A60FFF7FCFB38610FE049
:10292C00FFF7F8FB02463B69D31A022B08D90323A5
:10293C0040E100BF001002400000424280044242CD
:10294C009E4B5B6A03F00203002BE9D17B681B688A
:10295C0003F00403002B00F0A6800023FB75974BBB
:10296C00DB6903F08053002B0DD1944BDB69934A48
:10297C0043F08053D361914BDB6903F08053BB6010
:10298C00BB680123FB758E4B1B6803F48073002B13
:10299C0018D18B4B1B688A4A43F480731360FFF782
:1029AC00B9FB386108E0FFF7B5FB02463B69D31A67
:1029BC00642B01D90323FDE0814B1B6803F4807366
:1029CC00002BF0D07B68DB68012B06D17B4B1B6A9C
:1029DC007A4A43F0010313622DE07B68DB68002B1D
:1029EC000CD1764B1B6A754A23F001031362734BAF
:1029FC001B6A724A23F0040313621CE07B68DB68D9
:102A0C00052B0CD16D4B1B6A6C4A43F0040313620B
:102A1C006A4B1B6A694A43F0010313620BE0674B74
:102A2C001B6A664A23F001031362644B1B6A634AF8
:102A3C0023F0040313627B68DB68002B15D0FFF7CF
:102A4C0069FB38610AE0FFF765FB02463B69D31A64
:102A5C0041F28832934201D90323ABE0574B1B6AF6
:102A6C0003F00203002BEED014E0FFF753FB3861A8
:102A7C000AE0FFF74FFB02463B69D31A41F288325A
:102A8C00934201D9032395E04C4B1B6A03F00203DC
:102A9C00002BEED1FB7D012B05D1484BDB69474A5E
:102AAC0023F08053D3617B68DB69002B00F08180BD
:102ABC00424B5B6803F00C03082B61D07B68DB692D
:102ACC00022B46D13F4B00221A60FFF723FB3861E3
:102ADC0008E0FFF71FFB02463B69D31A022B01D912
:102AEC00032367E0354B1B6803F00073002BF0D118
:102AFC007B681B6AB3F5803F08D1304B5B6823F4CD
:102B0C0000327B689B682D4913434B602B4B5B68F1
:102B1C0023F474127B68196A7B685B6A0B43274940
:102B2C0013434B60274B01221A60FFF7F3FA38610D
:102B3C0008E0FFF7EFFA02463B69D31A022B01D9E2
:102B4C00032337E01D4B1B6803F00073002BF0D000
:102B5C002FE01C4B00221A60FFF7DCFA386108E00A
:102B6C00FFF7D8FA02463B69D31A022B01D903238B
:102B7C0020E0124B1B6803F00073002BF0D118E01F
:102B8C007B68DB69012B01D1012313E00B4B5B68E4
:102B9C00FB60FB6803F480327B681B6A9A4206D1A7
:102BAC00FB6803F470127B685B6A9A4201D00123C4
:102BBC0000E0002318461837BD4680BD00100240C7
:102BCC00007000406000424280B584B000AF786075
:102BDC0039607B68002B01D10123D0E06A4B1B6864
:102BEC0003F007033A689A4210D9674B1B6823F02D
:102BFC00070265493B6813430B60634B1B6803F08A
:102C0C0007033A689A4201D00123B8E07B681B683D
:102C1C0003F00203002B20D07B681B6803F0040335
:102C2C00002B05D0594B5B68584A43F4E063536062
:102C3C007B681B6803F00803002B05D0534B5B68C3
:102C4C00524A43F460535360504B5B6823F0F002DC
:102C5C007B689B684D4913434B607B681B6803F092
:102C6C000103002B40D07B685B68012B07D1474BDD
:102C7C001B6803F40033002B15D101237FE07B6824
:102C8C005B68022B07D1414B1B6803F00073002BD0
:102C9C0009D1012373E03D4B1B6803F00203002BA9
:102CAC0001D101236BE0394B5B6823F003027B6895
:102CBC005B68364913434B60FFF72CFAF8600AE067
:102CCC00FFF728FA0246FB68D31A41F28832934286
:102CDC0001D9032353E02D4B5B6803F00C027B6896
:102CEC005B689B009A42EBD1274B1B6803F00703F0
:102CFC003A689A4210D2244B1B6823F007022249EF
:102D0C003B6813430B60204B1B6803F007033A68C6
:102D1C009A4201D0012332E07B681B6803F0040364
:102D2C00002B08D0194B5B6823F4E0627B68DB68EE
:102D3C00164913434B607B681B6803F00803002B98
:102D4C0009D0124B5B6823F460527B681B69DB0073
:102D5C000E4913434B6000F021F802460B4B5B68A5
:102D6C001B0903F00F030A49CB5C22FA03F3094A4F
:102D7C001360094B1B681846FFF78AF900231846A5
:102D8C001037BD4680BD00BF00200240001002403D
:102D9C0068380008540000205800002080B487B028
:102DAC0000AF0023FB600023BB6000237B6100238A
:102DBC007B6000233B611E4B5B68FB60FB6803F090
:102DCC000C03042B02D0082B03D027E0194B3B61DA
:102DDC0027E0FB689B0C03F00F03174AD35C7B6066
:102DEC00FB6803F48033002B10D0114B5B685B0C39
:102DFC0003F00103114AD35CBB607B680D4A02FBF4
:102E0C0003F2BB68B2FBF3F37B6104E07B680C4A12
:102E1C0002FB03F37B617B693B6102E0054B3B6189
:102E2C0000BF3B6918461C37BD4680BC704700BFCD
:102E3C000010024000127A00783800088838000828
:102E4C0000093D0080B485B000AF78600A4B1B6868
:102E5C000A4AA2FB03235B0A7A6802FB03F3FB60BA
:102E6C0000BFFB685A1EFA60002BF9D100BF00BFEF
:102E7C001437BD4680BC704754000020D34D6210FF
:102E8C0080B582B000AF78607B68002B01D1012344
:102E9C0041E07B6893F83D30DBB2002B06D17B68B8
:102EAC00002283F83C207868FEF7F6FB7B68022250
:102EBC0083F83D207B681A687B68043319461046FA
:102ECC0000F056FA7B68012283F846207B680122C9
:102EDC0083F83E207B68012283F83F207B68012227
:102EEC0083F840207B68012283F841207B68012213
:102EFC0083F842207B68012283F843207B680122FF
:102F0C0083F844207B68012283F845207B680122EA
:102F1C0083F83D20002318460837BD4680BD0000CD
:102F2C0080B485B000AF78607B6893F83D30DBB23D
:102F3C00012B01D0012335E07B68022283F83D2070
:102F4C007B681B68DA687B681B6842F00102DA60F8
:102F5C007B681B68164A934209D07B681B68B3F1E7
:102F6C00804F04D07B681B68124A934211D17B6856
:102F7C001B689B6803F00703FB60FB68062B10D0F3
:102F8C007B681B681A687B681B6842F001021A6038
:102F9C0007E07B681B681A687B681B6842F00102BB
:102FAC001A60002318461437BD4680BC704700BF1A
:102FBC00002C01400004004080B584B000AF786064
:102FCC007B681B68DB68FB607B681B681B69BB60EC
:102FDC00BB6803F00203002B20D0FB6803F0020354
:102FEC00002B1BD07B681B686FF002021A617B6898
:102FFC0001221A777B681B689B6903F00303002B83
:10300C0003D0786800F098F905E0786800F08BF947
:10301C00786800F09AF97B6800221A77BB6803F095
:10302C000403002B20D0FB6803F00403002B1BD0FF
:10303C007B681B686FF004021A617B6802221A77A6
:10304C007B681B689B6903F44073002B03D0786882
:10305C0000F072F905E0786800F065F9786800F026
:10306C0074F97B6800221A77BB6803F00803002B05
:10307C0020D0FB6803F00803002B1BD07B681B6877
:10308C006FF008021A617B6804221A777B681B6850
:10309C00DB6903F00303002B03D0786800F04CF9D4
:1030AC0005E0786800F03FF9786800F04EF97B682D
:1030BC0000221A77BB6803F01003002B20D0FB68AA
:1030CC0003F01003002B1BD07B681B686FF0100201
:1030DC001A617B6808221A777B681B68DB6903F42A
:1030EC004073002B03D0786800F026F905E078686F
:1030FC0000F019F9786800F028F97B6800221A773B
:10310C00BB6803F00103002B0CD0FB6803F0010338
:10311C00002B07D07B681B686FF001021A6178687E
:10312C00FEF7E4F8BB6803F08003002B0CD0FB68BF
:10313C0003F08003002B07D07B681B686FF08002C4
:10314C001A61786800F06FFABB6803F04003002B3B
:10315C000CD0FB6803F04003002B07D07B681B6886
:10316C006FF040021A61786800F0F8F8BB6803F061
:10317C002003002B0CD0FB6803F02003002B07D09E
:10318C007B681B686FF020021A61786800F042FAC5
:10319C0000BF1037BD4680BD80B584B000AF7860ED
:1031AC0039600023FB737B6893F83C30012B01D111
:1031BC000223B4E07B68012283F83C207B68022266
:1031CC0083F83D207B681B689B68BB60BB6823F061
:1031DC007703BB60BB6823F47F43BB607B681B68D1
:1031EC00BA689A603B681B68B3F5005F3ED0B3F5D4
:1031FC00005F00F28780B3F5805F00F08680B3F546
:10320C00805F7FD8702B1AD0702B7BD8602B50D05E
:10321C00602B77D8502B3CD0502B73D8402B58D0E8
:10322C00402B6FD8302B64D0302B6BD8202B60D038
:10323C00202B67D8002B5CD0102B5AD062E07B6817
:10324C0018683B6899683B685A683B68DB6800F013
:10325C006AF97B681B689B68BB60BB6843F07703AB
:10326C00BB607B681B68BA689A604FE07B68186823
:10327C003B6899683B685A683B68DB6800F053F917
:10328C007B681B689A687B681B6842F480429A6072
:10329C003CE07B6818683B6859683B68DB681A46F9
:1032AC0000F0CAF87B681B685021184600F021F921
:1032BC002CE07B6818683B6859683B68DB681A46E9
:1032CC0000F0E8F87B681B686021184600F011F9E3
:1032DC001CE07B6818683B6859683B68DB681A46D9
:1032EC0000F0AAF87B681B684021184600F001F931
:1032FC000CE07B681A683B681B681946104600F0A6
:10330C00F8F803E00123FB7300E000BF7B680122A7
:10331C0083F83D207B68002283F83C20FB7B184619
:10332C001037BD4680BD80B483B000AF786000BF5D
:10333C000C37BD4680BC704780B483B000AF78605A
:10334C0000BF0C37BD4680BC704780B483B000AF63
:10335C00786000BF0C37BD4680BC704780B483B02A
:10336C0000AF786000BF0C37BD4680BC70470000D2
:10337C0080B485B000AF786039607B681B68FB60F7
:10338C007B682B4A934207D07B68B3F1804F03D004
:10339C007B68284A934208D1FB6823F07003FB60DA
:1033AC003B685B68FA681343FB607B68204A934276
:1033BC0007D07B68B3F1804F03D07B681D4A9342E2
:1033CC0008D1FB6823F44073FB603B68DB68FA6848
:1033DC001343FB60FB6823F080023B685B6913437B
:1033EC00FB607B68FA681A603B689A687B68DA62F3
:1033FC003B681A687B689A627B680D4A934203D1DA
:10340C003B681A697B681A637B6801225A617B6886
:10341C001B6903F00103002B05D07B681B6923F0AB
:10342C0001027B681A6100BF1437BD4680BC70472F
:10343C00002C01400004004080B487B000AFF8605D
:10344C00B9607A60FB681B6A7B61FB681B6A23F0BE
:10345C000102FB681A62FB689B693B613B6923F0C4
:10346C00F0033B617B681B013A6913433B617B6949
:10347C0023F00A037B617A69BB6813437B61FB68A9
:10348C003A699A61FB687A691A6200BF1C37BD46BB
:10349C0080BC704780B487B000AFF860B9607A60C8
:1034AC00FB681B6A7B61FB681B6A23F01002FB68DC
:1034BC001A62FB689B693B613B6923F470433B6177
:1034CC007B681B033A6913433B617B6923F0A003C0
:1034DC007B61BB681B017A6913437B61FB683A69AA
:1034EC009A61FB687A691A6200BF1C37BD4680BCC2
:1034FC00704780B485B000AF786039607B689B689A
:10350C00FB60FB6823F07003FB603A68FB681343B5
:10351C0043F00703FB607B68FA689A6000BF1437BE
:10352C00BD4680BC704780B487B000AFF860B9600E
:10353C007A603B60FB689B687B617B6923F47F430B
:10354C007B613B681A027B681A43BB6813437A6938
:10355C0013437B61FB687A699A6000BF1C37BD46D8
:10356C0080BC704780B485B000AF786039607B68F0
:10357C0093F83C30012B01D1022341E07B680122FE
:10358C0083F83C207B68022283F83D207B681B6813
:10359C005B68FB607B681B689B68BB60FB6823F007
:1035AC007003FB603B681B68FA681343FB607B6825
:1035BC001B68FA685A607B681B68144A934209D0EE
:1035CC007B681B68B3F1804F04D07B681B68104A82
:1035DC0093420CD1BB6823F08003BB603B685B68F3
:1035EC00BA681343BB607B681B68BA689A607B68D7
:1035FC00012283F83D207B68002283F83C200023C5
:10360C0018461437BD4680BC704700BF002C0140E3
:10361C000004004080B483B000AF786000BF0C376A
:10362C00BD4680BC704780B483B000AF786000BFEB
:10363C000C37BD4680BC7047014B1868704700BF03
:10364C006000002070B500260C4D0D4C641BA410BE
:10365C00A64209D100F0F6F800260A4D0A4C641B6C
:10366C00A410A64205D170BD55F8043B984701360D
:10367C00EEE755F8043B98470136F2E78C38000822
:10368C008C3800088C38000890380008024B014632
:10369C00186800F05FB800BF60000020024B0146C4
:1036AC00186800F00BB800BF60000020034602440D
:1036BC00934200D1704703F8011BF9E738B5054672
:1036CC00002943D051F8043C0C1F002BB8BFE41860
:1036DC0000F0AAF81E4A1368104633B963601460F0
:1036EC002846BDE8384000F0A5B8A3420AD92168A5
:1036FC006218934201BF1A685B68521822606360BB
:10370C000460EDE71A465B680BB1A342FAD9116865
:10371C005018A0420BD1206801445018834211600C
:10372C00DED118685B68014411605360D8E702D998
:10373C000C232B60D4E7206821188B4201BF196839
:10374C005B680918216063605460C9E738BD00BF2D
:10375C0020010020F8B5CD1C25F0030508350C2DF3
:10376C0038BF0C25002D064601DBA94203D90C23DA
:10377C0033600020F8BD00F057F821490A68144660
:10378C009CB9204F3B6823B92146304600F03CF8E9
:10379C0038602946304600F037F8431C23D10C23FF
:1037AC003046336000F046F8E3E723685B1B17D420
:1037BC000B2B03D923601C44256004E06368A242F0
:1037CC000CBF0B605360304600F034F804F10B0072
:1037DC00231D20F00700C21ACCD01B1AA350C9E736
:1037EC0022466468CCE7C41C24F00304A042E3D056
:1037FC00211A304600F008F80130DDD1CFE700BFC8
:10380C00200100202401002038B50023054D04467A
:10381C0008462B60FDF796FF431C02D12B6803B1C1
:10382C00236038BD74010020014800F009B800BFC6
:10383C007C010020014800F004B800BF7C0100208E
:10384C0070477047F8B500BFF8BC08BC9E4670477F
:0C385C00F8B500BFF8BC08BC9E467047E1
:103868000000000000000000010203040607080928
:1038780002030405060708090A0B0C0D0E0F1010A9
:043888000102000039
:04388C0031010008FE
:043890000D0100081E
:103894000100000001000000010000000100000020
:1038A4000100000001000000010000000100000010
:1038B4000100000001000000010000000100000000
:1038C400C8000000C8000000C8000000010000009B
:1038D4000100000088130000D0070000B80B0000AE
:1038E4000A00000000127A0010000000010000002D
:1038F4006400002000000000000000000000000040
:1039040000000000000000000000000000000000B3
:1039140000000000000000000000000000000000A3
:103924000000000000000000000000000000000093
:103934000000000000000000000000000000000083
:103944000000000000000000000000000000000073
:04395400000000006F
:0400000508002025AA
:00000001FF
